{
  "_format": "hh-sol-artifact-1",
  "contractName": "AccessPortal",
  "sourceName": "contracts/core/access/AccessPortal.sol",
  "abi": [
    {
      "inputs": [
        {
          "internalType": "address",
          "name": "identityIssuer_",
          "type": "address"
        },
        {
          "internalType": "address",
          "name": "complianceManager_",
          "type": "address"
        }
      ],
      "stateMutability": "nonpayable",
      "type": "constructor"
    },
    {
      "inputs": [],
      "name": "AccessTokenAlreadyMinted",
      "type": "error"
    },
    {
      "inputs": [],
      "name": "AccessTokenDoesNotExist",
      "type": "error"
    },
    {
      "inputs": [],
      "name": "AccessTokenNotTransferable",
      "type": "error"
    },
    {
      "inputs": [],
      "name": "ECDSAInvalidSignature",
      "type": "error"
    },
    {
      "inputs": [
        {
          "internalType": "uint256",
          "name": "length",
          "type": "uint256"
        }
      ],
      "name": "ECDSAInvalidSignatureLength",
      "type": "error"
    },
    {
      "inputs": [
        {
          "internalType": "bytes32",
          "name": "s",
          "type": "bytes32"
        }
      ],
      "name": "ECDSAInvalidSignatureS",
      "type": "error"
    },
    {
      "inputs": [
        {
          "internalType": "address",
          "name": "sender",
          "type": "address"
        },
        {
          "internalType": "uint256",
          "name": "tokenId",
          "type": "uint256"
        },
        {
          "internalType": "address",
          "name": "owner",
          "type": "address"
        }
      ],
      "name": "ERC721IncorrectOwner",
      "type": "error"
    },
    {
      "inputs": [
        {
          "internalType": "address",
          "name": "operator",
          "type": "address"
        },
        {
          "internalType": "uint256",
          "name": "tokenId",
          "type": "uint256"
        }
      ],
      "name": "ERC721InsufficientApproval",
      "type": "error"
    },
    {
      "inputs": [
        {
          "internalType": "address",
          "name": "approver",
          "type": "address"
        }
      ],
      "name": "ERC721InvalidApprover",
      "type": "error"
    },
    {
      "inputs": [
        {
          "internalType": "address",
          "name": "operator",
          "type": "address"
        }
      ],
      "name": "ERC721InvalidOperator",
      "type": "error"
    },
    {
      "inputs": [
        {
          "internalType": "address",
          "name": "owner",
          "type": "address"
        }
      ],
      "name": "ERC721InvalidOwner",
      "type": "error"
    },
    {
      "inputs": [
        {
          "internalType": "address",
          "name": "receiver",
          "type": "address"
        }
      ],
      "name": "ERC721InvalidReceiver",
      "type": "error"
    },
    {
      "inputs": [
        {
          "internalType": "address",
          "name": "sender",
          "type": "address"
        }
      ],
      "name": "ERC721InvalidSender",
      "type": "error"
    },
    {
      "inputs": [
        {
          "internalType": "uint256",
          "name": "tokenId",
          "type": "uint256"
        }
      ],
      "name": "ERC721NonexistentToken",
      "type": "error"
    },
    {
      "inputs": [],
      "name": "EnforcedPause",
      "type": "error"
    },
    {
      "inputs": [],
      "name": "ExpectedPause",
      "type": "error"
    },
    {
      "inputs": [],
      "name": "InvalidChainId",
      "type": "error"
    },
    {
      "inputs": [],
      "name": "InvalidExpirationTime",
      "type": "error"
    },
    {
      "inputs": [],
      "name": "InvalidSignature",
      "type": "error"
    },
    {
      "inputs": [
        {
          "internalType": "address",
          "name": "owner",
          "type": "address"
        }
      ],
      "name": "OwnableInvalidOwner",
      "type": "error"
    },
    {
      "inputs": [
        {
          "internalType": "address",
          "name": "account",
          "type": "address"
        }
      ],
      "name": "OwnableUnauthorizedAccount",
      "type": "error"
    },
    {
      "inputs": [],
      "name": "SignatureIsUsed",
      "type": "error"
    },
    {
      "inputs": [],
      "name": "UserIsBanned",
      "type": "error"
    },
    {
      "anonymous": false,
      "inputs": [
        {
          "indexed": true,
          "internalType": "address",
          "name": "receiver",
          "type": "address"
        },
        {
          "indexed": false,
          "internalType": "uint256",
          "name": "tokenId",
          "type": "uint256"
        },
        {
          "indexed": false,
          "internalType": "uint256",
          "name": "newExpirationTime",
          "type": "uint256"
        }
      ],
      "name": "AccessTokenExpirationTimeExtended",
      "type": "event"
    },
    {
      "anonymous": false,
      "inputs": [
        {
          "indexed": true,
          "internalType": "address",
          "name": "receiver",
          "type": "address"
        },
        {
          "indexed": false,
          "internalType": "uint256",
          "name": "tokenId",
          "type": "uint256"
        },
        {
          "indexed": false,
          "internalType": "uint256",
          "name": "expirationTime",
          "type": "uint256"
        }
      ],
      "name": "AccessTokenIssued",
      "type": "event"
    },
    {
      "anonymous": false,
      "inputs": [
        {
          "indexed": true,
          "internalType": "address",
          "name": "receiver",
          "type": "address"
        },
        {
          "indexed": false,
          "internalType": "uint256",
          "name": "tokenId",
          "type": "uint256"
        }
      ],
      "name": "AccessTokenRevoked",
      "type": "event"
    },
    {
      "anonymous": false,
      "inputs": [
        {
          "indexed": true,
          "internalType": "address",
          "name": "owner",
          "type": "address"
        },
        {
          "indexed": true,
          "internalType": "address",
          "name": "approved",
          "type": "address"
        },
        {
          "indexed": true,
          "internalType": "uint256",
          "name": "tokenId",
          "type": "uint256"
        }
      ],
      "name": "Approval",
      "type": "event"
    },
    {
      "anonymous": false,
      "inputs": [
        {
          "indexed": true,
          "internalType": "address",
          "name": "owner",
          "type": "address"
        },
        {
          "indexed": true,
          "internalType": "address",
          "name": "operator",
          "type": "address"
        },
        {
          "indexed": false,
          "internalType": "bool",
          "name": "approved",
          "type": "bool"
        }
      ],
      "name": "ApprovalForAll",
      "type": "event"
    },
    {
      "anonymous": false,
      "inputs": [
        {
          "indexed": true,
          "internalType": "address",
          "name": "complianceManager",
          "type": "address"
        }
      ],
      "name": "ComplianceManagerSet",
      "type": "event"
    },
    {
      "anonymous": false,
      "inputs": [
        {
          "indexed": false,
          "internalType": "uint256",
          "name": "expirationPeriod",
          "type": "uint256"
        }
      ],
      "name": "DefaultExpirationPeriodSet",
      "type": "event"
    },
    {
      "anonymous": false,
      "inputs": [
        {
          "indexed": true,
          "internalType": "address",
          "name": "identityIssuer",
          "type": "address"
        }
      ],
      "name": "IdentityIssuerSet",
      "type": "event"
    },
    {
      "anonymous": false,
      "inputs": [
        {
          "indexed": true,
          "internalType": "address",
          "name": "previousOwner",
          "type": "address"
        },
        {
          "indexed": true,
          "internalType": "address",
          "name": "newOwner",
          "type": "address"
        }
      ],
      "name": "OwnershipTransferred",
      "type": "event"
    },
    {
      "anonymous": false,
      "inputs": [
        {
          "indexed": false,
          "internalType": "address",
          "name": "account",
          "type": "address"
        }
      ],
      "name": "Paused",
      "type": "event"
    },
    {
      "anonymous": false,
      "inputs": [
        {
          "indexed": true,
          "internalType": "address",
          "name": "from",
          "type": "address"
        },
        {
          "indexed": true,
          "internalType": "address",
          "name": "to",
          "type": "address"
        },
        {
          "indexed": true,
          "internalType": "uint256",
          "name": "tokenId",
          "type": "uint256"
        }
      ],
      "name": "Transfer",
      "type": "event"
    },
    {
      "anonymous": false,
      "inputs": [
        {
          "indexed": false,
          "internalType": "address",
          "name": "account",
          "type": "address"
        }
      ],
      "name": "Unpaused",
      "type": "event"
    },
    {
      "anonymous": false,
      "inputs": [
        {
          "indexed": true,
          "internalType": "address",
          "name": "user",
          "type": "address"
        },
        {
          "indexed": false,
          "internalType": "bool",
          "name": "banned",
          "type": "bool"
        }
      ],
      "name": "UserBanStatusUpdated",
      "type": "event"
    },
    {
      "inputs": [],
      "name": "BRIDGE_DOMAIN_SEPARATOR",
      "outputs": [
        {
          "internalType": "bytes32",
          "name": "",
          "type": "bytes32"
        }
      ],
      "stateMutability": "view",
      "type": "function"
    },
    {
      "inputs": [],
      "name": "EXTEND_DOMAIN_SEPARATOR",
      "outputs": [
        {
          "internalType": "bytes32",
          "name": "",
          "type": "bytes32"
        }
      ],
      "stateMutability": "view",
      "type": "function"
    },
    {
      "inputs": [],
      "name": "MINT_DOMAIN_SEPARATOR",
      "outputs": [
        {
          "internalType": "bytes32",
          "name": "",
          "type": "bytes32"
        }
      ],
      "stateMutability": "view",
      "type": "function"
    },
    {
      "inputs": [
        {
          "internalType": "address",
          "name": "to",
          "type": "address"
        },
        {
          "internalType": "uint256",
          "name": "tokenId",
          "type": "uint256"
        }
      ],
      "name": "approve",
      "outputs": [],
      "stateMutability": "nonpayable",
      "type": "function"
    },
    {
      "inputs": [
        {
          "internalType": "address",
          "name": "owner",
          "type": "address"
        }
      ],
      "name": "balanceOf",
      "outputs": [
        {
          "internalType": "uint256",
          "name": "",
          "type": "uint256"
        }
      ],
      "stateMutability": "view",
      "type": "function"
    },
    {
      "inputs": [
        {
          "internalType": "address",
          "name": "",
          "type": "address"
        }
      ],
      "name": "bannedUsers",
      "outputs": [
        {
          "internalType": "bool",
          "name": "",
          "type": "bool"
        }
      ],
      "stateMutability": "view",
      "type": "function"
    },
    {
      "inputs": [],
      "name": "complianceManager",
      "outputs": [
        {
          "internalType": "contract IComplianceManager",
          "name": "",
          "type": "address"
        }
      ],
      "stateMutability": "view",
      "type": "function"
    },
    {
      "inputs": [],
      "name": "defaultExpirationPeriod",
      "outputs": [
        {
          "internalType": "uint256",
          "name": "",
          "type": "uint256"
        }
      ],
      "stateMutability": "view",
      "type": "function"
    },
    {
      "inputs": [
        {
          "internalType": "address",
          "name": "receiver",
          "type": "address"
        },
        {
          "internalType": "uint256",
          "name": "newExpirationTime",
          "type": "uint256"
        },
        {
          "internalType": "bytes",
          "name": "signature",
          "type": "bytes"
        }
      ],
      "name": "extend",
      "outputs": [],
      "stateMutability": "nonpayable",
      "type": "function"
    },
    {
      "inputs": [
        {
          "internalType": "uint256",
          "name": "tokenId",
          "type": "uint256"
        }
      ],
      "name": "getApproved",
      "outputs": [
        {
          "internalType": "address",
          "name": "",
          "type": "address"
        }
      ],
      "stateMutability": "view",
      "type": "function"
    },
    {
      "inputs": [],
      "name": "getCurrentBlockTimestamp",
      "outputs": [
        {
          "internalType": "uint256",
          "name": "",
          "type": "uint256"
        }
      ],
      "stateMutability": "view",
      "type": "function"
    },
    {
      "inputs": [],
      "name": "getIdentityIssuer",
      "outputs": [
        {
          "internalType": "address",
          "name": "",
          "type": "address"
        }
      ],
      "stateMutability": "view",
      "type": "function"
    },
    {
      "inputs": [
        {
          "internalType": "address",
          "name": "user",
          "type": "address"
        }
      ],
      "name": "getUserBanStatus",
      "outputs": [
        {
          "internalType": "bool",
          "name": "",
          "type": "bool"
        }
      ],
      "stateMutability": "view",
      "type": "function"
    },
    {
      "inputs": [
        {
          "internalType": "address",
          "name": "user",
          "type": "address"
        }
      ],
      "name": "getUserExpirationTime",
      "outputs": [
        {
          "internalType": "uint256",
          "name": "",
          "type": "uint256"
        }
      ],
      "stateMutability": "view",
      "type": "function"
    },
    {
      "inputs": [],
      "name": "identityIssuer",
      "outputs": [
        {
          "internalType": "address",
          "name": "",
          "type": "address"
        }
      ],
      "stateMutability": "view",
      "type": "function"
    },
    {
      "inputs": [
        {
          "internalType": "address",
          "name": "owner",
          "type": "address"
        },
        {
          "internalType": "address",
          "name": "operator",
          "type": "address"
        }
      ],
      "name": "isApprovedForAll",
      "outputs": [
        {
          "internalType": "bool",
          "name": "",
          "type": "bool"
        }
      ],
      "stateMutability": "view",
      "type": "function"
    },
    {
      "inputs": [
        {
          "internalType": "address",
          "name": "",
          "type": "address"
        },
        {
          "internalType": "address",
          "name": "subject",
          "type": "address"
        }
      ],
      "name": "isAuthorized",
      "outputs": [
        {
          "internalType": "bool",
          "name": "",
          "type": "bool"
        }
      ],
      "stateMutability": "view",
      "type": "function"
    },
    {
      "inputs": [
        {
          "internalType": "address",
          "name": "user",
          "type": "address"
        }
      ],
      "name": "isAuthorizedOnFallbackComplianceManager",
      "outputs": [
        {
          "internalType": "bool",
          "name": "",
          "type": "bool"
        }
      ],
      "stateMutability": "nonpayable",
      "type": "function"
    },
    {
      "inputs": [
        {
          "internalType": "uint256",
          "name": "tokenId",
          "type": "uint256"
        }
      ],
      "name": "isTokenNotExpired",
      "outputs": [
        {
          "internalType": "bool",
          "name": "",
          "type": "bool"
        }
      ],
      "stateMutability": "view",
      "type": "function"
    },
    {
      "inputs": [
        {
          "internalType": "address",
          "name": "receiver",
          "type": "address"
        },
        {
          "internalType": "uint256",
          "name": "expiresAt",
          "type": "uint256"
        },
        {
          "internalType": "bytes",
          "name": "signature",
          "type": "bytes"
        }
      ],
      "name": "mint",
      "outputs": [],
      "stateMutability": "nonpayable",
      "type": "function"
    },
    {
      "inputs": [
        {
          "internalType": "address",
          "name": "receiver",
          "type": "address"
        },
        {
          "internalType": "uint256",
          "name": "expiresAt",
          "type": "uint256"
        },
        {
          "internalType": "uint256",
          "name": "bridgedFromChainId",
          "type": "uint256"
        },
        {
          "internalType": "bytes",
          "name": "signature",
          "type": "bytes"
        }
      ],
      "name": "mintBridged",
      "outputs": [],
      "stateMutability": "nonpayable",
      "type": "function"
    },
    {
      "inputs": [],
      "name": "name",
      "outputs": [
        {
          "internalType": "string",
          "name": "",
          "type": "string"
        }
      ],
      "stateMutability": "view",
      "type": "function"
    },
    {
      "inputs": [],
      "name": "owner",
      "outputs": [
        {
          "internalType": "address",
          "name": "",
          "type": "address"
        }
      ],
      "stateMutability": "view",
      "type": "function"
    },
    {
      "inputs": [
        {
          "internalType": "uint256",
          "name": "tokenId",
          "type": "uint256"
        }
      ],
      "name": "ownerOf",
      "outputs": [
        {
          "internalType": "address",
          "name": "",
          "type": "address"
        }
      ],
      "stateMutability": "view",
      "type": "function"
    },
    {
      "inputs": [],
      "name": "pause",
      "outputs": [],
      "stateMutability": "nonpayable",
      "type": "function"
    },
    {
      "inputs": [],
      "name": "paused",
      "outputs": [
        {
          "internalType": "bool",
          "name": "",
          "type": "bool"
        }
      ],
      "stateMutability": "view",
      "type": "function"
    },
    {
      "inputs": [],
      "name": "renounceOwnership",
      "outputs": [],
      "stateMutability": "nonpayable",
      "type": "function"
    },
    {
      "inputs": [
        {
          "internalType": "uint256",
          "name": "tokenId",
          "type": "uint256"
        }
      ],
      "name": "revoke",
      "outputs": [],
      "stateMutability": "nonpayable",
      "type": "function"
    },
    {
      "inputs": [
        {
          "internalType": "address",
          "name": "from",
          "type": "address"
        },
        {
          "internalType": "address",
          "name": "to",
          "type": "address"
        },
        {
          "internalType": "uint256",
          "name": "tokenId",
          "type": "uint256"
        }
      ],
      "name": "safeTransferFrom",
      "outputs": [],
      "stateMutability": "nonpayable",
      "type": "function"
    },
    {
      "inputs": [
        {
          "internalType": "address",
          "name": "from",
          "type": "address"
        },
        {
          "internalType": "address",
          "name": "to",
          "type": "address"
        },
        {
          "internalType": "uint256",
          "name": "tokenId",
          "type": "uint256"
        },
        {
          "internalType": "bytes",
          "name": "data",
          "type": "bytes"
        }
      ],
      "name": "safeTransferFrom",
      "outputs": [],
      "stateMutability": "nonpayable",
      "type": "function"
    },
    {
      "inputs": [
        {
          "internalType": "address",
          "name": "operator",
          "type": "address"
        },
        {
          "internalType": "bool",
          "name": "approved",
          "type": "bool"
        }
      ],
      "name": "setApprovalForAll",
      "outputs": [],
      "stateMutability": "nonpayable",
      "type": "function"
    },
    {
      "inputs": [
        {
          "internalType": "address",
          "name": "complianceManager_",
          "type": "address"
        }
      ],
      "name": "setComplianceManager",
      "outputs": [],
      "stateMutability": "nonpayable",
      "type": "function"
    },
    {
      "inputs": [
        {
          "internalType": "uint256",
          "name": "expirationPeriod",
          "type": "uint256"
        }
      ],
      "name": "setDefaultExpirationPeriod",
      "outputs": [],
      "stateMutability": "nonpayable",
      "type": "function"
    },
    {
      "inputs": [
        {
          "internalType": "address",
          "name": "identityIssuer_",
          "type": "address"
        }
      ],
      "name": "setIdentityIssuer",
      "outputs": [],
      "stateMutability": "nonpayable",
      "type": "function"
    },
    {
      "inputs": [
        {
          "internalType": "address",
          "name": "user",
          "type": "address"
        },
        {
          "internalType": "bool",
          "name": "isBanned",
          "type": "bool"
        }
      ],
      "name": "setUserBanStatus",
      "outputs": [],
      "stateMutability": "nonpayable",
      "type": "function"
    },
    {
      "inputs": [
        {
          "internalType": "bytes4",
          "name": "interfaceId",
          "type": "bytes4"
        }
      ],
      "name": "supportsInterface",
      "outputs": [
        {
          "internalType": "bool",
          "name": "",
          "type": "bool"
        }
      ],
      "stateMutability": "view",
      "type": "function"
    },
    {
      "inputs": [],
      "name": "symbol",
      "outputs": [
        {
          "internalType": "string",
          "name": "",
          "type": "string"
        }
      ],
      "stateMutability": "view",
      "type": "function"
    },
    {
      "inputs": [
        {
          "internalType": "uint256",
          "name": "",
          "type": "uint256"
        }
      ],
      "name": "tokenToExpiration",
      "outputs": [
        {
          "internalType": "uint256",
          "name": "",
          "type": "uint256"
        }
      ],
      "stateMutability": "view",
      "type": "function"
    },
    {
      "inputs": [
        {
          "internalType": "uint256",
          "name": "tokenId",
          "type": "uint256"
        }
      ],
      "name": "tokenURI",
      "outputs": [
        {
          "internalType": "string",
          "name": "",
          "type": "string"
        }
      ],
      "stateMutability": "view",
      "type": "function"
    },
    {
      "inputs": [
        {
          "internalType": "address",
          "name": "from",
          "type": "address"
        },
        {
          "internalType": "address",
          "name": "to",
          "type": "address"
        },
        {
          "internalType": "uint256",
          "name": "tokenId",
          "type": "uint256"
        }
      ],
      "name": "transferFrom",
      "outputs": [],
      "stateMutability": "nonpayable",
      "type": "function"
    },
    {
      "inputs": [
        {
          "internalType": "address",
          "name": "newOwner",
          "type": "address"
        }
      ],
      "name": "transferOwnership",
      "outputs": [],
      "stateMutability": "nonpayable",
      "type": "function"
    },
    {
      "inputs": [],
      "name": "unpause",
      "outputs": [],
      "stateMutability": "nonpayable",
      "type": "function"
    },
    {
      "inputs": [
        {
          "internalType": "bytes32",
          "name": "",
          "type": "bytes32"
        }
      ],
      "name": "usedSignatures",
      "outputs": [
        {
          "internalType": "bool",
          "name": "",
          "type": "bool"
        }
      ],
      "stateMutability": "view",
      "type": "function"
    },
    {
      "inputs": [
        {
          "internalType": "address",
          "name": "",
          "type": "address"
        }
      ],
      "name": "userToTokenId",
      "outputs": [
        {
          "internalType": "uint256",
          "name": "",
          "type": "uint256"
        }
      ],
      "stateMutability": "view",
      "type": "function"
    }
  ],
  "bytecode": "0x60806040526301e133806007553480156200001957600080fd5b5060405162002cdf38038062002cdf8339810160408190526200003c9162000221565b336040518060400160405280601881526020017f53696e67756c61726974792041636365737320546f6b656e00000000000000008152506040518060400160405280600481526020016314d1d05560e21b8152508160009081620000a19190620002fe565b506001620000b08282620002fe565b50506006805460ff19169055506001600160a01b038116620000ec57604051631e4fbdf760e01b81526000600482015260240160405180910390fd5b620000f78162000116565b50620001038262000170565b6200010e81620001ba565b5050620003ca565b600680546001600160a01b03838116610100818102610100600160a81b031985161790945560405193909204169182907f8be0079c531659141344cd1fd0a4f28419497f9722a3daafe3b4186f6b6457e090600090a35050565b600880546001600160a01b0319166001600160a01b0383169081179091556040517ff3cddcf3923ac4d5e011ee7796187e25ee2d11819f75df637cdd9e14530abc6690600090a250565b600980546001600160a01b0319166001600160a01b0383169081179091556040517f53f4480ae5ea8a5b343e6044708c343dc8432cce896da766f0bc9aebc89de8e790600090a250565b80516001600160a01b03811681146200021c57600080fd5b919050565b600080604083850312156200023557600080fd5b620002408362000204565b9150620002506020840162000204565b90509250929050565b634e487b7160e01b600052604160045260246000fd5b600181811c908216806200028457607f821691505b602082108103620002a557634e487b7160e01b600052602260045260246000fd5b50919050565b601f821115620002f957600081815260208120601f850160051c81016020861015620002d45750805b601f850160051c820191505b81811015620002f557828155600101620002e0565b5050505b505050565b81516001600160401b038111156200031a576200031a62000259565b62000332816200032b84546200026f565b84620002ab565b602080601f8311600181146200036a5760008415620003515750858301515b600019600386901b1c1916600185901b178555620002f5565b600085815260208120601f198616915b828110156200039b578886015182559484019460019091019084016200037a565b5085821015620003ba5787850151600019600388901b60f8161c191681555b5050505050600190811b01905550565b61290580620003da6000396000f3fe608060405234801561001057600080fd5b50600436106102f45760003560e01c80638315ff8111610191578063b88d4fde116100e3578063e68467b211610097578063f2fde38b11610071578063f2fde38b146106cf578063f978fd61146106e2578063ff7bce231461070557600080fd5b8063e68467b21461066a578063e985e9c51461068a578063ef784111146106c657600080fd5b8063c87b56dd116100c8578063c87b56dd1461061f578063e3fc801314610632578063e4a20d1e1461065957600080fd5b8063b88d4fde146105ea578063bdf201cf146105fd57600080fd5b806394d008ef11610145578063a576b5da1161011f578063a576b5da14610590578063a8c117db146105a3578063af24b07b146105ca57600080fd5b806394d008ef1461056257806395d89b4114610575578063a22cb4651461057d57600080fd5b80638988d078116101765780638988d078146105165780638da5cb5b146105395780639106447c1461054f57600080fd5b80638315ff81146104e25780638456cb591461050e57600080fd5b80633b54c3dc1161024a5780635c975abb116101fe57806367b8c319116101d857806367b8c319146104b457806370a08231146104c7578063715018a6146104da57600080fd5b80635c975abb146104835780636352211e1461048e57806365e4ad9e146104a157600080fd5b806342842e0e1161022f57806342842e0e14610427578063430399ef1461043a5780635b9cfd781461044d57600080fd5b80633b54c3dc1461040c5780633f4ba83a1461041f57600080fd5b80631064ccde116102ac57806320c5429b1161028657806320c5429b146103d357806323b872dd146103e657806330176167146103f957600080fd5b80631064ccde14610386578063162c9692146103ad5780631e8774e5146103c057600080fd5b8063081812fc116102dd578063081812fc14610336578063095ea7b3146103615780630f28c97d1461037657600080fd5b806301ffc9a7146102f957806306fdde0314610321575b600080fd5b61030c6103073660046123fc565b610718565b60405190151581526020015b60405180910390f35b6103296107fd565b6040516103189190612469565b61034961034436600461247c565b61088f565b6040516001600160a01b039091168152602001610318565b61037461036f3660046124b1565b6108b8565b005b425b604051908152602001610318565b6103787f0683d1c283a672fc58eb7940a0dba83ea98b96966a9ca1b030dec2c60cea4d1e81565b6103746103bb3660046124db565b6108c7565b61030c6103ce3660046124db565b6108db565b6103746103e136600461247c565b61096b565b6103746103f43660046124f6565b6109f5565b6103746104073660046125ee565b610ab7565b600854610349906001600160a01b031681565b610374610d26565b6103746104353660046124f6565b610d38565b610374610448366004612645565b610d58565b61037861045b3660046124db565b6001600160a01b03166000908152600a60209081526040808320548352600b90915290205490565b60065460ff1661030c565b61034961049c36600461247c565b610f98565b61030c6104af3660046126a6565b610fa3565b6103746104c23660046126e7565b610fdc565b6103786104d53660046124db565b61103c565b61037461109d565b61030c6104f03660046124db565b6001600160a01b03166000908152600c602052604090205460ff1690565b6103746110af565b61030c6105243660046124db565b600c6020526000908152604090205460ff1681565b60065461010090046001600160a01b0316610349565b61037461055d36600461247c565b6110bf565b6103746105703660046125ee565b6110d0565b6103296112d0565b61037461058b3660046126e7565b6112df565b61037461059e3660046124db565b6112ea565b6103787fdaf0b3c5710379609eb5495f1ecd348cb28167711b73609fe565a7273455035481565b6103786105d83660046124db565b600a6020526000908152604090205481565b6103746105f836600461271e565b6112fb565b61030c61060b36600461247c565b6000908152600b6020526040902054421090565b61032961062d36600461247c565b611312565b6103787fa99e074f7ed01ed29d2214dc7fa7597b09d83d0c921b513239f2a0ce30dce12481565b6008546001600160a01b0316610349565b61037861067836600461247c565b600b6020526000908152604090205481565b61030c6106983660046126a6565b6001600160a01b03918216600090815260056020908152604080832093909416825291909152205460ff1690565b61037860075481565b6103746106dd3660046124db565b611387565b61030c6106f036600461247c565b600d6020526000908152604090205460ff1681565b600954610349906001600160a01b031681565b60007fffffffff0000000000000000000000000000000000000000000000000000000082167f80ac58cd0000000000000000000000000000000000000000000000000000000014806107ab57507fffffffff0000000000000000000000000000000000000000000000000000000082167f5b5e139f00000000000000000000000000000000000000000000000000000000145b806107f757507f01ffc9a7000000000000000000000000000000000000000000000000000000007fffffffff000000000000000000000000000000000000000000000000000000008316145b92915050565b60606000805461080c9061276e565b80601f01602080910402602001604051908101604052809291908181526020018280546108389061276e565b80156108855780601f1061085a57610100808354040283529160200191610885565b820191906000526020600020905b81548152906001019060200180831161086857829003601f168201915b5050505050905090565b600061089a826113db565b506000828152600460205260409020546001600160a01b03166107f7565b6108c382823361142d565b5050565b6108cf61143a565b6108d881611486565b50565b6009546040517f65e4ad9e0000000000000000000000000000000000000000000000000000000081523360048201526001600160a01b03838116602483015260009216906365e4ad9e906044016020604051808303816000875af1158015610947573d6000803e3d6000fd5b505050506040513d601f19601f820116820180604052508101906107f791906127c1565b61097361143a565b6000818152600260205260409020546001600160a01b0316610994826114e8565b6001600160a01b0381166000818152600a60209081526040808320839055858352600b82528083209290925590518481527f5a97c31a752c3b5f7fbed69dca1da8c7a6e81d574c9bbef0b8229b6456b4d90c91015b60405180910390a25050565b6001600160a01b038216610a3d576040517f64a0ae92000000000000000000000000000000000000000000000000000000008152600060048201526024015b60405180910390fd5b6000610a4a83833361153c565b9050836001600160a01b0316816001600160a01b031614610ab1576040517f64283d7b0000000000000000000000000000000000000000000000000000000081526001600160a01b0380861660048301526024820184905282166044820152606401610a34565b50505050565b6001600160a01b0383166000908152600c6020526040902054839060ff1615610b0c576040517f8cdf3ed800000000000000000000000000000000000000000000000000000000815260040160405180910390fd5b6001600160a01b0384166000908152600a60205260408120544691819003610b60576040517fcad890f700000000000000000000000000000000000000000000000000000000815260040160405180910390fd5b6000818152600b60205260409020548086111580610b7e5750428611155b15610bb5576040517f08e8b93700000000000000000000000000000000000000000000000000000000815260040160405180910390fd5b6040517fffffffffffffffffffffffffffffffffffffffff000000000000000000000000606089901b16602082015260348101879052605481018490527fa99e074f7ed01ed29d2214dc7fa7597b09d83d0c921b513239f2a0ce30dce124607482015260009060940160408051601f1981840301815291815281516020928301206000818152600d90935291205490915060ff1615610c80576040517f32c5235a00000000000000000000000000000000000000000000000000000000815260040160405180910390fd5b6000610c8c82886115c0565b905080610cc5576040517f8baa579f00000000000000000000000000000000000000000000000000000000815260040160405180910390fd5b6000848152600b60209081526040918290208a905581518681529081018a90526001600160a01b038b16917f9f79d8558098e93d93481617fdfc4b2c098991a6778f1cdb147c367c145239fc910160405180910390a2505050505050505050565b610d2e61143a565b610d36611615565b565b610d53838383604051806020016040528060008152506112fb565b505050565b6001600160a01b0384166000908152600c6020526040902054849060ff1615610dad576040517f8cdf3ed800000000000000000000000000000000000000000000000000000000815260040160405180910390fd5b46808403610de7576040517f7a47c9a200000000000000000000000000000000000000000000000000000000815260040160405180910390fd5b6001600160a01b0386166000908152600a60205260409020548015610e38576040517f51f1539400000000000000000000000000000000000000000000000000000000815260040160405180910390fd5b428611610e71576040517f08e8b93700000000000000000000000000000000000000000000000000000000815260040160405180910390fd5b6040517fffffffffffffffffffffffffffffffffffffffff000000000000000000000000606089901b1660208201526034810187905260548101839052607481018690527f0683d1c283a672fc58eb7940a0dba83ea98b96966a9ca1b030dec2c60cea4d1e609482015260009060b40160408051601f1981840301815291815281516020928301206000818152600d90935291205490915060ff1615610f43576040517f32c5235a00000000000000000000000000000000000000000000000000000000815260040160405180910390fd5b610f4d81866115c0565b610f83576040517f8baa579f00000000000000000000000000000000000000000000000000000000815260040160405180910390fd5b610f8d8888611667565b505050505050505050565b60006107f7826113db565b6001600160a01b0381166000908152600a6020526040812054610fd4816000908152600b6020526040902054421090565b949350505050565b610fe461143a565b6001600160a01b0382166000818152600c6020908152604091829020805460ff191685151590811790915591519182527f58ebd8f207a1e536201620f78d6019effa327609cb0338752040bc35fbf04f3891016109e9565b60006001600160a01b038216611081576040517f89c62b6400000000000000000000000000000000000000000000000000000000815260006004820152602401610a34565b506001600160a01b031660009081526003602052604090205490565b6110a561143a565b610d36600061170e565b6110b761143a565b610d3661177f565b6110c761143a565b6108d8816117bc565b6001600160a01b0383166000908152600c6020526040902054839060ff1615611125576040517f8cdf3ed800000000000000000000000000000000000000000000000000000000815260040160405180910390fd5b6001600160a01b0384166000908152600a602052604090205446908015611178576040517f51f1539400000000000000000000000000000000000000000000000000000000815260040160405180910390fd5b4285116111b1576040517f08e8b93700000000000000000000000000000000000000000000000000000000815260040160405180910390fd5b6040517fffffffffffffffffffffffffffffffffffffffff000000000000000000000000606088901b16602082015260348101869052605481018390527fdaf0b3c5710379609eb5495f1ecd348cb28167711b73609fe565a72734550354607482015260009060940160408051601f1981840301815291815281516020928301206000818152600d90935291205490915060ff161561127c576040517f32c5235a00000000000000000000000000000000000000000000000000000000815260040160405180910390fd5b61128681866115c0565b6112bc576040517f8baa579f00000000000000000000000000000000000000000000000000000000815260040160405180910390fd5b6112c68787611667565b5050505050505050565b60606001805461080c9061276e565b6108c3338383611831565b6112f261143a565b6108d8816118e9565b6113068484846109f5565b610ab18484848461194b565b606061131d826113db565b50600061133560408051602081019091526000815290565b905060008151116113555760405180602001604052806000815250611380565b8061135f84611af0565b6040516020016113709291906127de565b6040516020818303038152906040525b9392505050565b61138f61143a565b6001600160a01b0381166113d2576040517f1e4fbdf700000000000000000000000000000000000000000000000000000000815260006004820152602401610a34565b6108d88161170e565b6000818152600260205260408120546001600160a01b0316806107f7576040517f7e27328900000000000000000000000000000000000000000000000000000000815260048101849052602401610a34565b610d538383836001611bae565b6006546001600160a01b03610100909104163314610d36576040517f118cdaa7000000000000000000000000000000000000000000000000000000008152336004820152602401610a34565b600880547fffffffffffffffffffffffff0000000000000000000000000000000000000000166001600160a01b0383169081179091556040517ff3cddcf3923ac4d5e011ee7796187e25ee2d11819f75df637cdd9e14530abc6690600090a250565b60006114f7600083600061153c565b90506001600160a01b0381166108c3576040517f7e27328900000000000000000000000000000000000000000000000000000000815260048101839052602401610a34565b6000611546611d04565b6000838152600260205260409020546001600160a01b0316801580159061157557506001600160a01b03851615155b156115ac576040517fe8398c3700000000000000000000000000000000000000000000000000000000815260040160405180910390fd5b6115b7858585611d41565b95945050505050565b7f19457468657265756d205369676e6564204d6573736167653a0a3332000000006000908152601c839052603c812060006115fb8285611d56565b6008546001600160a01b0390811691161495945050505050565b61161d611d80565b6006805460ff191690557f5db9ee0a495bf2e6ff9c91a7834c1ba4fdd244a5e8aa4e537bd38aeae4b073aa335b6040516001600160a01b03909116815260200160405180910390a1565b60006001600e600082825461167c919061280d565b9091555050600e80546000908152600b6020908152604080832086905592546001600160a01b0387168352600a9091529190208190556116bd908490611dbc565b600e5460408051918252602082018490526001600160a01b038516917fccf71ae609ab90808047ba0ddb017cb557e69c5450b719d5d8b06e1caf533372910160405180910390a250600e5492915050565b600680546001600160a01b038381166101008181027fffffffffffffffffffffff0000000000000000000000000000000000000000ff85161790945560405193909204169182907f8be0079c531659141344cd1fd0a4f28419497f9722a3daafe3b4186f6b6457e090600090a35050565b611787611d04565b6006805460ff191660011790557f62e78cea01bee320cd4e420270b5ea74000d11b0c9f74754ebdbfc544b05a25861164a3390565b806000036117f6576040517f08e8b93700000000000000000000000000000000000000000000000000000000815260040160405180910390fd5b60078190556040518181527f4c5be357267018098e9d2bbe3d121a4aeac25405864ba5ee4b0ccb7def3af7469060200160405180910390a150565b6001600160a01b03821661187c576040517f5b08ba180000000000000000000000000000000000000000000000000000000081526001600160a01b0383166004820152602401610a34565b6001600160a01b03838116600081815260056020908152604080832094871680845294825291829020805460ff191686151590811790915591519182527f17307eab39ab6107e8899845ad3d59bd9653f200f220920489ca2b5937696c31910160405180910390a3505050565b600980547fffffffffffffffffffffffff0000000000000000000000000000000000000000166001600160a01b0383169081179091556040517f53f4480ae5ea8a5b343e6044708c343dc8432cce896da766f0bc9aebc89de8e790600090a250565b6001600160a01b0383163b15610ab1576040517f150b7a020000000000000000000000000000000000000000000000000000000081526001600160a01b0384169063150b7a02906119a6903390889087908790600401612847565b6020604051808303816000875af19250505080156119e1575060408051601f3d908101601f191682019092526119de91810190612883565b60015b611a63573d808015611a0f576040519150601f19603f3d011682016040523d82523d6000602084013e611a14565b606091505b508051600003611a5b576040517f64a0ae920000000000000000000000000000000000000000000000000000000081526001600160a01b0385166004820152602401610a34565b805181602001fd5b7fffffffff0000000000000000000000000000000000000000000000000000000081167f150b7a020000000000000000000000000000000000000000000000000000000014611ae9576040517f64a0ae920000000000000000000000000000000000000000000000000000000081526001600160a01b0385166004820152602401610a34565b5050505050565b60606000611afd83611dd6565b600101905060008167ffffffffffffffff811115611b1d57611b1d612532565b6040519080825280601f01601f191660200182016040528015611b47576020820181803683370190505b5090508181016020015b7fffffffffffffffffffffffffffffffffffffffffffffffffffffffffffffffff017f3031323334353637383961626364656600000000000000000000000000000000600a86061a8153600a8504945084611b5157509392505050565b8080611bc257506001600160a01b03821615155b15611cbc576000611bd2846113db565b90506001600160a01b03831615801590611bfe5750826001600160a01b0316816001600160a01b031614155b8015611c3057506001600160a01b0380821660009081526005602090815260408083209387168352929052205460ff16155b15611c72576040517fa9fbf51f0000000000000000000000000000000000000000000000000000000081526001600160a01b0384166004820152602401610a34565b8115611cba5783856001600160a01b0316826001600160a01b03167f8c5be1e5ebec7d5bd14f71427d1e84f3dd0314c0f7b2291e5b200ac8c7c3b92560405160405180910390a45b505b5050600090815260046020526040902080547fffffffffffffffffffffffff0000000000000000000000000000000000000000166001600160a01b0392909216919091179055565b60065460ff1615610d36576040517fd93c066500000000000000000000000000000000000000000000000000000000815260040160405180910390fd5b6000611d4b611d04565b610fd4848484611eb8565b600080600080611d668686611fe7565b925092509250611d768282612034565b5090949350505050565b60065460ff16610d36576040517f8dfc202b00000000000000000000000000000000000000000000000000000000815260040160405180910390fd5b6108c3828260405180602001604052806000815250612138565b6000807a184f03e93ff9f4daa797ed6e38ed64bf6a1f0100000000000000008310611e1f577a184f03e93ff9f4daa797ed6e38ed64bf6a1f010000000000000000830492506040015b6d04ee2d6d415b85acef81000000008310611e4b576d04ee2d6d415b85acef8100000000830492506020015b662386f26fc100008310611e6957662386f26fc10000830492506010015b6305f5e1008310611e81576305f5e100830492506008015b6127108310611e9557612710830492506004015b60648310611ea7576064830492506002015b600a83106107f75760010192915050565b6000828152600260205260408120546001600160a01b0390811690831615611ee557611ee581848661214f565b6001600160a01b03811615611f4157611f02600085600080611bae565b6001600160a01b038116600090815260036020526040902080547fffffffffffffffffffffffffffffffffffffffffffffffffffffffffffffffff0190555b6001600160a01b03851615611f70576001600160a01b0385166000908152600360205260409020805460010190555b60008481526002602052604080822080547fffffffffffffffffffffffff0000000000000000000000000000000000000000166001600160a01b0389811691821790925591518793918516917fddf252ad1be2c89b69c2b068fc378daa952ba7f163c4a11628f55a4df523b3ef91a4949350505050565b600080600083516041036120215760208401516040850151606086015160001a612013888285856121e5565b95509550955050505061202d565b50508151600091506002905b9250925092565b6000826003811115612048576120486128a0565b03612051575050565b6001826003811115612065576120656128a0565b0361209c576040517ff645eedf00000000000000000000000000000000000000000000000000000000815260040160405180910390fd5b60028260038111156120b0576120b06128a0565b036120ea576040517ffce698f700000000000000000000000000000000000000000000000000000000815260048101829052602401610a34565b60038260038111156120fe576120fe6128a0565b036108c3576040517fd78bce0c00000000000000000000000000000000000000000000000000000000815260048101829052602401610a34565b61214283836122b4565b610d53600084848461194b565b61215a83838361234b565b610d53576001600160a01b0383166121a1576040517f7e27328900000000000000000000000000000000000000000000000000000000815260048101829052602401610a34565b6040517f177e802f0000000000000000000000000000000000000000000000000000000081526001600160a01b038316600482015260248101829052604401610a34565b600080807f7fffffffffffffffffffffffffffffff5d576e7357a4501ddfe92f46681b20a084111561222057506000915060039050826122aa565b604080516000808252602082018084528a905260ff891692820192909252606081018790526080810186905260019060a0016020604051602081039080840390855afa158015612274573d6000803e3d6000fd5b5050604051601f1901519150506001600160a01b0381166122a0575060009250600191508290506122aa565b9250600091508190505b9450945094915050565b6001600160a01b0382166122f7576040517f64a0ae9200000000000000000000000000000000000000000000000000000000815260006004820152602401610a34565b60006123058383600061153c565b90506001600160a01b03811615610d53576040517f73c6ac6e00000000000000000000000000000000000000000000000000000000815260006004820152602401610a34565b60006001600160a01b03831615801590610fd45750826001600160a01b0316846001600160a01b031614806123a557506001600160a01b0380851660009081526005602090815260408083209387168352929052205460ff165b80610fd45750506000908152600460205260409020546001600160a01b03908116911614919050565b7fffffffff00000000000000000000000000000000000000000000000000000000811681146108d857600080fd5b60006020828403121561240e57600080fd5b8135611380816123ce565b60005b8381101561243457818101518382015260200161241c565b50506000910152565b60008151808452612455816020860160208601612419565b601f01601f19169290920160200192915050565b602081526000611380602083018461243d565b60006020828403121561248e57600080fd5b5035919050565b80356001600160a01b03811681146124ac57600080fd5b919050565b600080604083850312156124c457600080fd5b6124cd83612495565b946020939093013593505050565b6000602082840312156124ed57600080fd5b61138082612495565b60008060006060848603121561250b57600080fd5b61251484612495565b925061252260208501612495565b9150604084013590509250925092565b7f4e487b7100000000000000000000000000000000000000000000000000000000600052604160045260246000fd5b600082601f83011261257257600080fd5b813567ffffffffffffffff8082111561258d5761258d612532565b604051601f8301601f19908116603f011681019082821181831017156125b5576125b5612532565b816040528381528660208588010111156125ce57600080fd5b836020870160208301376000602085830101528094505050505092915050565b60008060006060848603121561260357600080fd5b61260c84612495565b925060208401359150604084013567ffffffffffffffff81111561262f57600080fd5b61263b86828701612561565b9150509250925092565b6000806000806080858703121561265b57600080fd5b61266485612495565b93506020850135925060408501359150606085013567ffffffffffffffff81111561268e57600080fd5b61269a87828801612561565b91505092959194509250565b600080604083850312156126b957600080fd5b6126c283612495565b91506126d060208401612495565b90509250929050565b80151581146108d857600080fd5b600080604083850312156126fa57600080fd5b61270383612495565b91506020830135612713816126d9565b809150509250929050565b6000806000806080858703121561273457600080fd5b61273d85612495565b935061274b60208601612495565b925060408501359150606085013567ffffffffffffffff81111561268e57600080fd5b600181811c9082168061278257607f821691505b6020821081036127bb577f4e487b7100000000000000000000000000000000000000000000000000000000600052602260045260246000fd5b50919050565b6000602082840312156127d357600080fd5b8151611380816126d9565b600083516127f0818460208801612419565b835190830190612804818360208801612419565b01949350505050565b808201808211156107f7577f4e487b7100000000000000000000000000000000000000000000000000000000600052601160045260246000fd5b60006001600160a01b03808716835280861660208401525083604083015260806060830152612879608083018461243d565b9695505050505050565b60006020828403121561289557600080fd5b8151611380816123ce565b7f4e487b7100000000000000000000000000000000000000000000000000000000600052602160045260246000fdfea264697066735822122029309220110bdb903b5e2a40cccdccf6757e71a73758931348843c19f3dc9ed964736f6c63430008140033",
  "linkReferences": {},
  "deployedLinkReferences": {}
}